:020000040800F2
:10000000B80F002005010008D54A0008533C00083D
:10001000014A00086D120008A15400080000000009
:10002000000000000000000000000000614D00081A
:10003000A712000800000000C94C0008E94D0008A4
:100040001F0100081F0100081F0100081F01000810
:100050001F0100081F0100081F0100081F01000800
:100060001F0100081F0100081F0100081F010008F0
:100070001F010008711200081F0100081F0100087D
:100080001F0100081F0100081F0100081F010008D0
:100090001F0100081F0100081F0100087B15000850
:1000A0001F010008654E00081F0100081F0100081D
:1000B0001F010008714E0008914E00081F01000842
:1000C0001F0100081F0100081F0100081F01000890
:1000D0001F0100081F0100088D530008D1530008BC
:1000E000551500081F0100081F010008DFF810D097
:1000F00000F07EFE00480047716B0008AFF30080FF
:10010000B80F00200648804706480047FEE7FEE794
:10011000FEE7FEE7FEE7FEE7FEE7FEE7FEE7FEE7B7
:10012000634E0008ED000008202A04DB203A21FA83
:1001300002F00021704721FA02F3D040C2F1200200
:100140009140084319467047A0F14101192900D890
:100150002030704740EA01039B0703D009E008C93B
:10016000121F08C0042AFAD203E011F8013B00F87C
:10017000013B521EF9D27047D2B201E000F8012BC8
:10018000491EFBD270470022F6E710B513460A4617
:1001900004461946FFF7F0FF204610BD30B505466E
:1001A0002A460B4612F8010B13F8014B08B1A04286
:1001B000F8D01CB1002802D06D1CF1E7284630BDF4
:1001C000421C10F8011B0029FBD1801A704710B5A2
:1001D000002200E0521C835C8C5CA34201D1002B06
:1001E000F8D1D8B2E1B2401A10BD30B504460020B3
:1001F000034600E05B1C934203D2E05CCD5C401BF5
:10020000F8D030BD034611F8012B00F8012B002A6D
:10021000F9D11846704730B505460020034600E086
:100220005B1C934205D2EC5CC85C201A01D1002C07
:10023000F6D130BD2DE9FF4F087883B09946FF28ED
:1002400005D0491C2D2804D00024002008E00020FF
:100250000BE00124F9E700EB800003EB4000491CB0
:100260000B78FF2BF7D104B140420023029314789E
:1002700019461D462D2C01D02B2C04D1521C2D2C9F
:1002800013D000240294AA461478FF2C0FD00A251C
:10029000A3FB057801FB05814FF0000C03FB0C115B
:1002A000521CE3194AEB0101EEE70124EAE781441D
:1002B00053EA010002D019F5C87F06DA039800213D
:1002C000C0E9001107B0BDE8F08F0025AE4E2F4603
:1002D000DFF8B882184600F067FDCDE90001B9F1FA
:1002E000000002DAC9F1000400E004460023A74A36
:1002F0001AEB030B42EB045A12E0E00707D02A4640
:1003000033463846414600F05CFA074688462A469E
:1003100033461046194600F054FA05460E4664105E
:10032000002CEAD1DDE90001B9F1000F5A4653462D
:1003300006DA00F0B8FA3A46434600F0B4FA05E0AF
:1003400000F03FFA3A46434600F03BFA029A0AB1FF
:1003500081F00041039AC2E90001B3E72DE9FF4FA4
:100360001F468DB0D7E901464FF0FF382E20454695
:100370004FF000090B90B9696D1C0E988847396AD7
:10038000824688470028F6D1BAF1FF3F0AD024F40C
:10039000D064002E11DDBAF12B0F08D0BAF12D0F69
:1003A0000BD102E0404611B08DE744F48064B96996
:1003B0006D1C0E9888478246761E6946600501D5F9
:1003C0002D2000E02B208DF8000001F1010B0DF134
:1003D000200809E0B9696D1C0E98884782460F987D
:1003E00044F40074761E0560002E02DDBAF1300F71
:1003F000F0D00B998A453ED144F0800406E00F9975
:10040000681CA9F1010944F400740860B9696D1C05
:10041000761E0E98884782463028F0D02BE00B9944
:100420008A4505D1200603D444F08004761E18E0E6
:10043000504605F01BFA08B30DF11301761E44F483
:1004400000748B4508D2AAF130000BF8010B20068E
:1004500007D5A9F1010003E0200602D409F101004B
:100460008146A00502D50F99681C0860B9696D1C0A
:100470000E9888478246002ED1DC53E0002E51DDD5
:10048000BAF1650F02D0BAF1450F4BD1A00549D59D
:10049000B9696D1C24F44074761E0E988847824614
:1004A000002E0CDD2B2804D0BAF12D0F07D144F417
:1004B0008074B9696D1C0E9888478246761EE005E7
:1004C00001D52D2100E02B2108F8011BCDF82C804F
:1004D00021E00DF12901761E44F4007488450CD208
:1004E000AAF1300010F0FF0088F8000002D10B994B
:1004F000884509D908F1010806E0E00501D524483E
:1005000001E042F20F708146B9696D1C0E98884770
:1005100082460F980560002E04DD504605F0A6F9CE
:100520000028D6D1F9690E988847FF208BF8000083
:1005300088F800000020069007904B466A4608A9FC
:1005400006A8FFF777FEA00502D46FF001002AE7A6
:1005500014F0240F0AD0E00714D1DDE90612386840
:10056000031D3B600068C0E900120BE0DDE90601F5
:1005700000F094FA0146E00704D13868021D3A60A1
:100580000068016028460EE7000014400000F03FBC
:10059000F1D8FFFF80EA010210B502F000434000ED
:1005A00022D04A001FD0010E01EB1261C0F35600A9
:1005B000C2F3560240F4000042F40002A0FB022005
:1005C00000047F39140400D0401C50EA124001D4CA
:1005D0004000491EC2B20C0604EBD010401C40087B
:1005E000802A02D003E0002010BD20F00100002985
:1005F00000DA0020184310BD30B480EA010202F096
:10060000004530F0004221F0004013D090B1C30DFE
:10061000D40DC2F31601C0F31600E41A41F4000130
:1006200040F400027D34914201D3641C00E0490093
:10063000002C02DA30BC002070474FF40000002389
:10064000914201D3891A034340084FEA4101F7D18F
:1006500051B1914202D14FF0004105E002D24FF07A
:10066000010101E06FF0010103EBC450284430BCEC
:1006700000F006BB2DE9FE4F804681EA0300C00F63
:100680000C46009021F0004123F00045B8EB020039
:10069000A94105D24046214690461C460B460246DB
:1006A00023F00040104347D0270DC7F30A00C3F3DF
:1006B0000A510290401A019040286BDAC3F31300EC
:1006C00040F4801B0098924620B10023D2EB030A2D
:1006D00063EB0B0B01985946C0F14002504600F005
:1006E00040FA06460D4650465946019A00F048FA2F
:1006F00010EB08006141002487EA115284EAE77395
:100700001A4340D0009A62B3019A012A4FEA075275
:1007100015DC001B61EB02014FF0004202EA0752B8
:10072000CDE90042001C41F5801132462B4600F015
:10073000EDFA03B0BDE8F08F40462146F9E7001B13
:1007400061EB0201001C41F5801300185B41201889
:10075000A2F5001747EB030140EAD570B6196D41C9
:1007600011E06D084FEA360645EAC0754FEA0752B8
:10077000001B61EB0201001C41F5801149084FEAA2
:1007800030000019514132462B4603B0BDE8F04F0E
:1007900000F0ADBA0098012240000023D0EB020225
:1007A00063EBE073009821464FEAE074B8EB000079
:1007B00061EB0401E9E783F000435BE781F000416E
:1007C00058E72DE9FE4F81EA030404F0004421F0CC
:1007D000004100944FF0000B23F0004350EA010465
:1007E0005ED052EA03045BD0C3F30A54C1F30A5546
:1007F0002C44A4F2F3340194A0FB0254C1F313017E
:1008000041F48011C3F3130343F4801301FB02444A
:1008100000FB034E840A970A44EA815447EA83574F
:10082000A4FB076802958D0A05FB07854FEA932C08
:1008300004FB0C542705029D4FEA065847EA163779
:10084000B5EB08056EEB070C870E920E47EA811791
:1008500042EA8312A7FB0201B6EB0B0164EB000432
:100860002B0D43EA0C335E1844EB1C50DA4651461C
:10087000E7FB0201C5F313044FEA0B3343EA1453B9
:100880004FEA0432019C43EA0603A4F10C040294EB
:10089000009CCDE900B400F039FA03B0BDE8F08F58
:1008A00000200146F9E72DE9F04D81EA030404F048
:1008B000004B21F0004514464FF0000A23F00041A0
:1008C00050EA050220D054EA01021DD0C5F30A57B0
:1008D0000246C5F31303C1F31300C1F30A5640F4F3
:1008E000801543F48013A7EB0608101BD64608F2C8
:1008F000FD3873EB050002D308F1010801E09218FE
:100900005B41B8F1000F03DA00200146BDE8F08D2D
:1009100000204FF48011064684460EE0171B73EB4F
:10092000050705D3121B63EB050306434CEA010CD4
:1009300049084FEA300092185B4150EA0107EDD1B7
:1009400052EA030012D082EA040083EA0501084358
:1009500005D0101BAB4106D20122002306E0002285
:100960004FF0004302E06FF0010253101AEB060053
:100970004CEB085110EB0A0041EB0B01BDE8F04DC8
:1009800000F0B5B970B521F0004303430CD0C1F3BA
:100990000A550024D5EB040564EB0403D617AD1A01
:1009A000B34102DB0020014670BD201841EB02512B
:1009B00070BD96230022114600F06BB90EB540F2CF
:1009C000334102910021CDE900110A460B4600F0A7
:1009D0009DF903B000BD20F00040C10DC0F316002A
:1009E00040F400007F2901DA00207047962903DCDB
:1009F000C1F19601C840704796398840704770B57C
:100A0000C1F30A5201F000450024C1F3130140F282
:100A1000FF3341F480119A4201DA002070BD40F2A8
:100A200033439A42A2F2334203DC5242FFF77CFB8B
:100A300000E090402C43F1D0404270BD30B5041E20
:100A400071F1000404DB4FF00044404264EB01010B
:100A5000141E73F1000405DB1C464FF000435242A4
:100A600063EB04038B4208BF824230BD30B5041EE5
:100A700071F1000404DB4FF00044404264EB0101DB
:100A8000141E73F1000405DB1C464FF00043524274
:100A900063EB0403994208BF904230BD01F000436C
:100AA00030B421F0004150EA010206D00A0DA2F54F
:100AB0006072C1F31301002A02DC30BC00207047D1
:100AC000440F44EAC104C100E01830BC00EBC2503E
:100AD00000F0D6B830B50B46014600202022012494
:100AE00009E021FA02F59D4205D303FA02F5491BFC
:100AF00004FA02F52844151EA2F10102F1DC30BD12
:100B00002DE9F05F0546002092469B468846064642
:100B1000814640241BE02846414647462246FFF7CF
:100B200003FB53465A46C01A914110D3114618464A
:100B3000224600F016F82D1A67EB01084F462246B0
:100B40000120002100F00DF817EB00094E41201E96
:100B5000A4F10104DFDC484631462A464346BDE89D
:100B6000F09F202A04DB203A00FA02F100207047AF
:100B70009140C2F1200320FA03F3194390407047DB
:100B8000202A06DBCB17203A41FA02F043EAE07351
:100B900006E041FA02F3D040C2F12002914008433E
:100BA00019467047426842B1016811F8013B23B110
:100BB000521EC0E90012184670470121C160881E0C
:100BC000704742685AB1C368016843B983688B4271
:100BD00005D0491E521CC0E90012002070474FF09A
:100BE000FF3070470FB4002300B589B00CA9009105
:100BF0000B996FF00042CB601E4B06931E4B079380
:100C00000423CDE901321D4A089202466B460020BA
:100C1000FFF7A4FB09B05DF814FB70B586B006467B
:100C20004FF0FF300091CDE90101002015460C4640
:100C300004903246694604A8FFF7D4FF02460498A0
:100C4000211825B108B1084600E020462860049824
:100C500000280DD0002A02DD0098884208D0081B29
:100C60000094CDE901043246694604A8FFF7BAFFB3
:100C700006B070BDA50B0008C30B0008150E0008D8
:100C80000029A8BF7047401C490008BF20F00100A0
:100C9000704710B4B0FA80FC00FA0CF050EA01047E
:100CA00004BF10BC704749B1CCF1200421FA04F410
:100CB00011FA0CF118BF012121430843A3EB0C01E9
:100CC000CB1D4FEA00614FEA102042BF002010BC4C
:100CD000704700EBC35010440029A4BF10BC7047FC
:100CE000401C490008BF20F0010010BC704710B53F
:100CF000141E73F1000408DA401C41F1000192183F
:100D00005B411A4301D120F0010010BD2DE9F04DE7
:100D100092469B4611B1B1FA81F202E0B0FA80F23C
:100D200020329046FFF71DFF04460F4640EA0A00B6
:100D300041EA0B0153465A46084313D0114653EA81
:100D4000010019D0C8F140025046FFF7EDF9054601
:100D50000E46504659464246FFF703FF084305D06A
:100D6000012004E020463946BDE8F08D002005430F
:100D700046EAE0762C4337430A986305E40AA0EB81
:100D800008000022FD0A44EA47540A3002D5002038
:100D90000146E9E7010510196941DDE90845001937
:100DA0006941BDE8F04DA2E70EB540F23342029230
:100DB0000022CDE900221346FFF7A8FF03B000BDD3
:100DC000C1F30A52C1F3130140F2FF3341F4801121
:100DD0009A4202DA00200146704740F233439A42B9
:100DE000A2F2334202DC5242FFF79EB9FFF7B9BECE
:100DF000064C074D06E0E06840F0010394E8070068
:100E000098471034AC42F6D3FFF774F90883000812
:100E100028830008C0B24FF4F05100F001B8000080
:100E20007F2801D9002208E0064A02EB5002C007E1
:100E3000127800D1120902F00F0201209040084000
:100E4000704700003082000870B58C1810F8015B04
:100E500015F0070301D110F8013B2A1106D110F853
:100E6000012B03E010F8016B01F8016B5B1EF9D157
:100E70002B0705D40023521E0DD401F8013BFAE7DD
:100E800010F8013BCB1A921C03E013F8015B01F848
:100E9000015B521EF9D5A142D8D3002070BD0000DD
:100EA00070B5044600688168C943C90717D18168D5
:100EB00021F00101816001F02BF905460AE000BF35
:100EC00001F026F9401B022804D920688068C0433D
:100ED000C00706D020688068C043C007F0D000205B
:100EE00070BDA06A40F01000A062E06A40F001000E
:100EF000E062012070BD0000F8B5002604460096AF
:100F000000688168C943C9072DD0816841F001019B
:100F10008160164816490068B0FBF1F000E0401E01
:100F200000900028FBD101F0F3F8054616E000BF61
:100F300001F0EEF8401B022810D920688068C043F9
:100F4000C0070BD0A06A40F01000A062E06A40F039
:100F50000100E06284F824600120F8BD2068806808
:100F6000C043C007E4D10020F8BD00001C010020F0
:100F700040420F002DE9FE4F012407270094CDE9E0
:100F8000014700266946394800F0C4FB08B100F06B
:100F900039FB0025354800F097FD6421334800F007
:100FA000F5FC18B9314800F033FC06446D1CEDB275
:100FB0000A2DEFD30A25B6FBF5F0FFF7FFFCDFF8AB
:100FC000B0A04FF066394A465346FFF7FAFB0022BD
:100FD000284BFFF768FCFFF761FDDFF89CB059462E
:100FE000FFF7D8FAFFF7F7FC244E6946B0811020CE
:100FF0008DE891001D4800F08DFB08B100F002FB68
:1010000000273C464FF47A78184800F05DFD4146D1
:10101000164800F0BBFC18B9144800F0F9FB07446F
:10102000641CE4B20A2CEFD3B7FBF5F0FFF7C6FC63
:101030004A465346FFF7C5FB6FF00B02FFF7A2FCD1
:101040000F4A104BFFF7BAFB0F4A104BFFF72BFC70
:1010500000220F4BFFF70EFBFFF720FD5946FFF76D
:1010600099FAFFF7B8FCF081BDE8FE8FF404002088
:1010700066660A4000FEAF400000C8428C090020AE
:10108000E17A14AE47E1F63F22FDF675E09C713F30
:10109000000039402DE9FF47032400264FF6FF6783
:1010A0003CE00325282000F0EFFE0DF10C084FF086
:1010B00008094FF0020A13E00A2000F0E5FE8DF85F
:1010C0000C908DF80D60CDF80080CDE901A70123CB
:1010D000BE227021144801F0D1FBC82000F0D4FEDC
:1010E00000F0A0F8C0F3C00040B15DB1D4B1C82099
:1010F00000F0CAFE002004B0BDE8F0876D1E15F0B8
:10110000FF05D9D103A88DE8C1000123BA227021BF
:10111000054801F0B3FBC82000F0B6FE641E14F0D1
:10112000FF04BED10120E6E72405002030B585B0DC
:10113000FFF7B0FFF0B100208DF80000002817D0B5
:1011400001A800F01DF88DF80100684603F00AFEC2
:10115000094D04982946FFF71DFAFFF73CFC074CA0
:10116000294660800398FFF715FAFFF734FCA0804A
:1011700005B030BD0120DFE70000C8428C09002027
:1011800030B587B0054633208DF8140000208DF867
:1011900015004FF6FF62022105A88DE80700042420
:1011A0000123AC2270211E4801F068FB4B2000F0A7
:1011B0006BFE00F037F8C00904D0641E14F0FF0481
:1011C000F4D12BE054B3052000F05EFE4FF6FF7221
:1011D000062103A88DE80700012300227021104892
:1011E00001F01EFA9DF80D009DF80E1041EA002155
:1011F0009DF80F0040EA0120000928609DF80F00CB
:101200009DF8101041EA00219DF8110040EA0120EC
:10121000C0F313006860002007B030BD0120FBE779
:10122000240500201FB501214FF6FF7203A88DE8A9
:1012300007000B4600227021034801F0F1F99DF8E8
:101240000C0004B010BD000024050020064B4FF434
:101250000051012805D0002805D10022184600F0D1
:1012600051BF0122FAE7704700100140FEE700007D
:10127000014800F0F9BC0000E007002030B590F80C
:1012800040500124AC40C56B6C60046863604368E7
:10129000102B036803D099600068C26030BD9A606B
:1012A0000068C16030BD704710B50C46034603F0BE
:1012B00017FD10B14FF0FF3010BDD3F80021521CC4
:1012C000D01702EB106020F0FF00101AC3F80001E5
:1012D000185C2070002010BD70B590B040216846A9
:1012E000FEF751FF50A004F065F95AA15B48FEF7E4
:1012F00089FF5B4E002535705AA16846FEF782FFD4
:101300006846FEF75DFF82B24FF47A742346694661
:10131000584802F04DFC204603F032FE02287AD0F5
:1013200041A004F047F954A16846FEF76BFF49A1BC
:101330004A48FEF767FF35706846FEF741FF82B204
:10134000234669464B4802F033FC44F6206003F024
:1013500017FE012831D0002836D033A004F02AF936
:10136000022348A21946702003F042FC464804F0CC
:1013700021F946A13948FEF745FF35704BA1684673
:10138000FEF740FF02234FA21946002003F030FC75
:101390006846FEF715FF82B2254623466946354862
:1013A00002F006FC4B4803F0EBFD044601464AA060
:1013B00004F000F9012C09D005E0022348A21946E7
:1013C000002003F015FC012010B070BD022344A2E0
:1013D0001946002003F00CFC46A004F0EBF81DA118
:1013E0001E48FEF70FFF48A16846FEF70BFF0223D9
:1013F0004AA21946002003F0FBFB6846FEF7E0FE18
:1014000082B22B4669461B4802F0D2FB284603F005
:10141000B7FD0228D1D102231AA21946702003F089
:10142000E7FB0020D0E700002A2A2A2A2A2A2A2AB3
:101430002A2A2A2A2A2A2A2A2A2A2A2A2A2A2A2A0C
:101440002A2A2A2A2A2A2A2A2A2A2A2A2A2A2A2AFC
:101450002A2A0A004F4B0D0A000000003402002027
:101460000300002041542B43574D4F44453D310D5F
:101470000A0000009807002041542B43574A41506E
:101480000D0A00002D2D000070820008736D61723E
:1014900074636F6E66696720636F6E6E65637465F3
:1014A0006420776966690D0A0000000041542B43EF
:1014B000575354415254534D4152543D332C330DE4
:1014C0000A00000041542B43575354415254534D8A
:1014D00041525400400D03007265743D25640A00BA
:1014E00057494649202020202020202020204F4BF3
:1014F00000000000E585B3E997AD736D6172746318
:101500006F6E6669670D0A0041542B435753544F61
:1015100050534D4152540D0A0000000041542B43DA
:101520005753544F50534D415254000010B5FFF7DC
:10153000D3FE012804D1BDE8104002A004F03AB85F
:1015400010BD000057494649E5B7B2E993BEE68EA3
:10155000A5200A0010B54FF4805000F0D7FC4FF4DE
:10156000005000F0D3FC4FF4804000F0CFFCBDE809
:1015700010404FF4004000F0C9BC10B5202000F02E
:10158000C5FCBDE810404FF4807000F0BFBC000007
:1015900010B50C46034603F0ABFB28B109A004F0DC
:1015A00009F84FF0FF3010BDD3F80421521CD017BA
:1015B00002EB106020F0FF00101AC3F804011C5465
:1015C000002010BD71756575652069732066756CA6
:1015D0006C0A00002DE9F04116460D46074600242E
:1015E0000CE029783846FFF7D3FF002803DA4FF0E4
:1015F000FF30BDE8F081641CA4B26D1CB442F0D38E
:101600000020F6E772B6FEE708B506480268001F3C
:101610000368001F0068009003A1074803F0DAFF89
:10162000054808BDF0F7FF1F2530385825303858D9
:10163000253038580000000054030020F8B500257C
:101640000446009590F8240001280BD0012084F86E
:1016500024002046FFF724FC2046FFF74DFC06003F
:1016600002D050E00220F8BDA06A20F4885040F07B
:101670000200A062022001F07DFA25490968B1FB51
:10168000F0F0400000E0401E00900028FBD12068F0
:10169000816841F00801816000F03AFD074608E0EA
:1016A00000F036FDC01B0A2803D9206880680007B7
:1016B00015D4206880680007F2D42068816841F062
:1016C0000401816000F024FD074612E000F020FDD7
:1016D000C01B0A280DD920688068400709D5A06A78
:1016E00020F0020040F01000A06284F82450012095
:1016F000F8BD206880684007E8D4A06A20F00200A6
:1017000040F00100A06284F824503046F8BD00008B
:101710001C010020F8B50024009490F824202546F0
:10172000012A12D0012280F824204A681F23072AA8
:101730000DD20668776B521E02EB820293409F43E4
:101740000B6893401F43776319E00220F8BD0668D9
:101750000D2A0AD2376BD21F02EB820293409F43BD
:101760000B6893401F43376309E0F76A0D3A02EBB9
:10177000820293409F430B6893401F43F7620A68BD
:10178000072306680A2A0AD3F7680A3A02EB4202DC
:1017900093409F438B6893401F43F76008E037698D
:1017A00002EB420293409F438B6893401F43376193
:1017B0000A68102A01D0112A20D1124B02689A42DD
:1017C00017D193681B0219D4936843F40003936004
:1017D0000968102912D10C490C4A0968B1FBF2F1D1
:1017E00001EB8101490000E0491E00910029FBD175
:1017F00004E0816A41F020018162012480F82450D4
:101800002046F8BD002401401C01002040420F008A
:101810000068C06C704700002DE9F0414FF00007F0
:1018200004003D467ED0A06A002628B9E66284F80E
:101830002460204600F07EF82046FFF731FBA16AC5
:10184000C90600D420B1A06A40F01000A06269E08F
:10185000A16A21F4885141F00201A1626268E16944
:10186000237B0A4347EA43010A43A1684FF4807788
:10187000B94209D0012907D05FF0000194F814C0E3
:10188000BCF1010F02D00AE03946F7E7F3B1A36AD1
:1018900043F02003A362E36A43F00103E362236899
:1018A000D3F804C02CF4694C4CEA010CC3F804C012
:1018B00021688B68DFF870C003EA0C0313438B6068
:1018C000A168B9420BD0012909D00CE0DFF85CC057
:1018D000A3690CEB43330B4343F40061DFE7218A38
:1018E0000D05A5F580152168CB6A23F470032B4301
:1018F000CB62216889680E4B1940914208D1E6629B
:10190000A16A21F0020141F00101A162BDE8F0816C
:10191000A06A20F0020040F01000A062E06A40F0EF
:101920000100E0620120F1E7FDF7E1FF00E0FFFFC9
:10193000FE0E1FFF00B585B00021009101910291BC
:10194000039100680E49884218D10E48816941F41C
:1019500000718161816901F400710491816941F034
:10196000040181618069694600F00400049002204E
:10197000009003200190044800F0D4FA05B000BDA7
:101980000024014000100240000801402DE9F84306
:1019900000270D460446009700F0BAFB80462068F9
:1019A0008168C90508D5A06A40F02000A06284F8CB
:1019B00024700120BDE8F8834168C90503D4C06ADA
:1019C00010F4700F2AD0022001F0D4F83B490968C6
:1019D000B1FBF0F62068036939490B424FEA610117
:1019E0004FEAA1121FD1C3684FEA611C13EA0C0F22
:1019F00019D103690B4225D1C068104222D11420AD
:101A000023E0681C0AD02DB100F082FBA0EB080097
:101A1000A84203D920680068800725D5206800689F
:101A20008007EED52DE003690B4202D1C168114257
:101A300006D0026923490A4206D1C068084203D190
:101A4000542002E0292000E0FC204643009816E0E4
:101A5000681C11D02DB100F05BFBA0EB0800A84280
:101A60000AD90098B04207D2A06A40F00400A062F0
:101A700084F8247003209DE70098401C0090B04239
:101A8000E6D321686FF012000860A06A40F400708D
:101A9000A06220688068C0F3424007280CD1207BF8
:101AA00050B9A06A20F48070A062A06AC00403D478
:101AB000A06A40F00100A06200207BE71C0100202A
:101AC000244992244992240070B5044690F82400D9
:101AD00001280DD0012084F824002046FFF70CFADD
:101AE00002004FF0000005D084F82400104670BDBD
:101AF000022070BDA16A40F20123994341F4807134
:101B0000A1621F4D23681F49AB4218D10E6816F41D
:101B1000702F14D0A66A46F48016A6620E68760569
:101B200005D5A66A26F4005646F48056A662A66A33
:101B3000F6040AD5E66A26F00606E66206E0A66A1C
:101B400026F48016A6625E68E9E7E06284F8240065
:101B50006FF00200186020688368C3F34243072BCC
:101B600005D1A84208D1096811F4702F04D081680A
:101B700041F480118160B9E7816841F4A001F9E77F
:101B8000002801400424014010B590F821100022E3
:101B9000022905D00421816380F82020012010BD96
:101BA00001680B6823F00E030B6001680B6823F0DB
:101BB00001030B6090F84030C46B012101FA03F37C
:101BC000636080F8211080F82020104610BD0000CE
:101BD00010B590F821100024022903D0042181635C
:101BE00001243DE001680A6822F00E020A600168E3
:101BF0000A6822F001020A601A4A0168914201D182
:101C0000012121E0174A1432914201D110211BE039
:101C1000144A2832914201D1891515E0114A3C320B
:101C2000914201D189140FE00E4A5032914202D103
:101C30004FF4803108E00B4A6432914202D14FF4F4
:101C4000801101E04FF08071064A083A516001218D
:101C500080F82110002180F82010416B01B18847E5
:101C6000204610BD080002402DE9F05FC16B0C68F2
:101C700001680B68D0F840C0042202FA0CF2494D0A
:101C8000DFF824A1494E4A4FDFF828B1DFF828E1F8
:101C900022422CD05A072AD50A68920603D40A6831
:101CA00022F004020A600168A94201D1042219E06D
:101CB000514501D1402215E0B14202D14FF480627A
:101CC00010E0B94202D14FF480420BE0594502D1F5
:101CD0004FF4802206E0714502D14FF4800201E00A
:101CE0004FF080622F4908394A60C16A3BE04FF0EB
:101CF000020808FA0CF818EA040F4FF000094FF038
:101D0000010235D05FEA837832D50B689B0605D493
:101D10000B6823F00A030B6080F821200168A942B8
:101D200001D1022219E0514501D1202215E0B14232
:101D300002D14FF4007210E0B94202D14FF40052C8
:101D40000BE0594502D14FF4003206E0714502D153
:101D50004FF4001201E04FF00072124908394A6056
:101D600080F82090816A00291AD0BDE8F05F08470A
:101D7000082505FA0CF5254212D01B0710D50B6873
:101D800023F00E030B6090F84010C36B02FA01F1D0
:101D90005960826380F8212080F82090016BE2E78F
:101DA000BDE8F09F080002401C00024030000240E5
:101DB00044000240580002406C00024030B528B395
:101DC00008C8134914221944B1FBF2F18900C16318
:101DD00010498163022141771A6843F6F0718A4302
:101DE000D0E900142143D0E902452C432143046982
:101DF000214344692143846921431143196000212F
:101E00004163012242770177084630BD012030BD91
:101E1000F8FFFDBF0000024070B5044690F82000B6
:101E2000002501280CD0012084F8200094F82160BE
:101E30000020012E06D084F820000225284670BD1F
:101E4000022070BD022684F82160A0632068066825
:101E500026F0010606602046FFF710FAE06A002827
:101E60002068016802D041F00E0106E021F0040173
:101E700001602068016841F00A0101602068016882
:101E800041F001010160D9E770B5044600F040F966
:101E90000546601C02D004480078044400F038F97C
:101EA000401BA042FAD370BD10010020144910B5A8
:101EB0000B68144A14681B1BC82B19D309681160DE
:101EC0001149B0F5005F0FD0B0F5804F0ED020283B
:101ED0000FD0B0F5004F0ED0B0F5805F0DD0B0F54B
:101EE000807F05D1062002E0012000E0022008707A
:101EF00010BD0320FBE70420F9E70520F7E7000009
:101F0000180100201400002010000020044910B522
:101F10000A68024202D00860FFF7C8FF10BD000047
:101F2000140401402DE9F84FDFF8B8910024A9F11D
:101F3000040B23460F2709F1040AABF1040EC9E094
:101F40000125A5402A40AA427DD1674ED1F804C0A0
:101F5000ACEB0608B44532D014DCBCF1030F3AD028
:101F600009DCBCF1000F2AD0BCF1010F1CD0BCF180
:101F7000020F31D11DE0BCF1110F17D0BCF1120FCF
:101F80002AD119E0B8F5881F19D006DCB8F5803FD2
:101F900015D0B8F5801F1FD111E0B8F5001F0ED085
:101FA000B8F5041F18D10AE0CB6815E0CB681B1DFB
:101FB00012E0CB6808330FE0CB680C330CE08B6881
:101FC0002BB1012B4FF0080303D0456104E004233B
:101FD00002E0056100E00023FF2A01D8064601E087
:101FE00000F104064FEA840501D9A5F12005D6F8D1
:101FF000008007FA05FC28EA0C0803FA05F548EA10
:102000000508C6F800804D68ED0062D5374DAE6911
:1020100046F00106AE61AD6924F0030605F0010546
:102020000095334D06EB050CDCF80850A607360F7B
:1020300007FA06F825EA0805DFF8B880404503D11D
:102040004FF0000817E044E0DFF8AC80404502D1D3
:102050004FF001080FE0DFF8A480404502D14FF0B7
:10206000020808E0DFF89880404502D14FF00308ED
:1020700001E04FF0040808FA06F848EA0508CCF831
:1020800008804D68D9F80060ED024D4601D5164331
:1020900000E096432E604D68DAF80060AD025546C8
:1020A00001D5164300E096432E604D68DBF80060D2
:1020B000AD035D4601D5164300E096432E604D68A2
:1020C000DEF80060ED03754601D5164300E0964347
:1020D0002E60641C0D682A46E5407FF431AFBDE8F0
:1020E000F88F0000080401400000111000100240A9
:1020F0000000014000080140000C014000100140B8
:10210000001401400AB1016170470904FBE70000B7
:1021100001488068704700001001002070B504007D
:1021200025D094F83D00002520B984F83C50204685
:1021300000F03CFC242084F83D002068016821F078
:10214000010101602068016841F4004101602068DC
:10215000016821F40041016000F08AFE4D4A616887
:10216000914201D84C4900E04C49884201D20120FB
:1021700070BD4B492368B0FBF1F15E6826F03F0665
:102180000E435E606368934206D94FF496735943D9
:102190004FF47A73B1FBF3F12368491C1E6A26F0F1
:1021A0003F06314319626168914210D84900401ED0
:1021B000B0FBF1F2521CC2F30B02042A01D204203C
:1021C00022E0B0FBF1F0401CC0F30B001CE0A26861
:1021D000F2B301EBC10303EB0116431EB3FBF6F3AD
:1021E0005B1C43F480431B0549D092B301EBC10251
:1021F00002EB0111401EB0FBF1F0401CC0F30B00DC
:1022000040F4804040F400402168CA694CF6FF73F6
:102210009A431043C861D4E907100143206802685B
:1022200022F0C00211430160D4E903010143206898
:10223000826848F2FF339A4311438160D4E9050173
:1022400008432168CA6822F0FF021043C86001E019
:102250000EE016E02068016841F00101016025648C
:10226000202084F83D00256384F83E50002070BD96
:1022700001EB4106431EB3FBF6F35B1CB3E7012001
:10228000C2E701EB4101401EB0FBF1F0401CC0F37E
:102290000B00B7E7A086010080841E0000093D0006
:1022A00040420F002DE9F84F0025DDF828909846B0
:1022B00017468A4604460095FFF72AFF064694F81B
:1022C0003D0020287AD11923012286492046009614
:1022D00001F09AFE0028F5D194F83C0001286DD059
:1022E000012084F83C0020680168C90703D1016817
:1022F00041F0010101602068016821F40061016082
:10230000222084F83D00102084F83E002564676296
:10231000A4F82A80608D20857348E06233464A46DF
:102320005146204601F0AEFC00287CD1208DDFF81C
:10233000BC81202768B1012814D0022820680168D8
:102340001ED041F48061016020684169806900907D
:10235000BBE02068416981690091016841F4007126
:102360000160B2E02068016821F48061016072B60A
:102370002068416981690091016841F400710AE0B7
:1023800041F40061016072B6206841698169009181
:10239000016821F48061016062B696E0032865D887
:1023A00001280CD002284B464FF00002414620463F
:1023B00000960BD001F028FEA8BB0CE090E032465E
:1023C0004946204601F0C6FE68BB71E001F01CFEE4
:1023D00048BB72B633E02068016821F48061016077
:1023E00072B620680069616A0870606A401C6062A9
:1023F000208D401E2085608D401E60853C4846F241
:10240000A8110068B0FBF1F0C0EBC00000EB800049
:102410000090401E009007D020684069C0434007EC
:102420000DD50098F5E727E044F8305F6773A57392
:10243000206940F02000206162B625731CE020680E
:10244000016841F40071016020680069616A0870E8
:10245000606A401C6062218D491E2185618D491E84
:10246000618562B621680969017025E032464946F6
:10247000204601F06FFE10B10120BDE8F88F206802
:102480000069616A0870606A401C6062208D401EAD
:1024900081B22185608D401E608520684269D243EB
:1024A000520712D4032903D1016821F4806101602D
:1024B00020680069616A0870606A401C6062208D53
:1024C000401E2085608D401E6085208D00287FF491
:1024D00065AF84F83D7084F83E5084F83C50CCE7FA
:1024E0000220CAE7020010000000FFFF0400010004
:1024F0001C0100202DE9F84F1F4690468A460446ED
:10250000DDF82890FFF704FE054694F83D002028EA
:102510007FD11923012240492046009501F074FD26
:10252000002876D194F83C00012872D0012084F86C
:102530003C0020680168C90703D1016841F001012E
:1025400001602068016821F400610160212084F8A5
:102550003D00102084F83E0000262664C4F8248044
:102560006785608D20852D48E0622B464A4651469E
:10257000204601F0FDFB90B9206841698069009018
:1025800036E02A464946204601F01CFE50B1206C38
:10259000042804D12068016841F400710160012021
:1025A000BDE8F88F606A216800780861606A401CA5
:1025B0006062618D491E6185218D491E89B2218528
:1025C00022685369DB435B070BD451B1007810617B
:1025D000606A401C6062608D401E6085208D401ED8
:1025E00020852A464946204601F0E2FC0028CED14B
:1025F000208D0028C5D154F83D0B016841F40071CD
:102600000160202004F81E09E67766770020C7E7FE
:10261000FFE70220C4E70000020010000000FFFFF7
:102620002DE9FF4F83B00025DDE910799A469346E6
:102630000446DDF848800095FFF76AFD064694F8E9
:102640003D0020287CD1192301228849204600968C
:1026500001F0DAFC0028F5D194F83C0001286FD095
:10266000012084F83C0020680168C90703D1016893
:1026700041F0010101602068016821F400610160FE
:10268000222084F83D00402084F83E0025646762E3
:10269000A4F82A90608D20857548E062CDE9008617
:1026A00053465A462046049901F0B0FB00287CD1DD
:1026B000208DDFF8C091202768B1012814D00228AE
:1026C000206801681ED041F4806101602068416982
:1026D00080690090BCE020684169816900910168CF
:1026E00041F400710160B3E02068016821F4806169
:1026F000016072B62068416981690091016841F406
:1027000000710AE041F40061016072B6206841691D
:1027100081690091016821F48061016062B697E0EF
:10272000032865D801280CD0022843464FF0000248
:102730004946204600960BD001F066FCA8BB0CE091
:1027400091E032464146204601F004FD68BB72E04C
:1027500001F05AFC48BB72B633E02068016821F4EE
:102760008061016072B620680069616A0870606A01
:10277000401C6062208D401E2085608D401E60855B
:102780003D4846F2A8110068B0FBF1F0C0EBC00074
:1027900000EB80000090401E009007D02068406948
:1027A000C04340070DD50098F5E727E044F8305FB7
:1027B0006773A573206940F02000206162B625731D
:1027C0001CE02068016841F4007101602068006924
:1027D000616A0870606A401C6062218D491E218513
:1027E000618D491E618562B621680969017026E024
:1027F00032464146204601F0ADFC18B1012007B039
:10280000BDE8F08F20680069616A0870606A401C4A
:102810006062208D401E81B22185608D401E6085E2
:1028200020684269D243520712D4032903D10168B8
:1028300021F48061016020680069616A0870606A43
:10284000401C6062208D401E2085608D401E60858A
:10285000208D00287FF464AF84F83D7084F83E50EA
:1028600084F83C50CBE70220C9E7000002001000CA
:102870000000FFFF040001001C0100202DE9FF4FB4
:1028800083B09A46DDE9119793460446DDF840800F
:10289000FFF73EFC054694F83D0020287FD1192320
:1028A000012240492046009501F0AEFB002876D178
:1028B00094F83C00012872D0012084F83C00206884
:1028C0000168C90703D1016841F001010160206876
:1028D000016821F400610160212084F83D0040205E
:1028E00084F83E0000262664C4F82480A4F82A90C8
:1028F000608D20852C48E062CDE9007553465A462C
:102900002046049901F000FB70B930E02A463946B0
:10291000204601F057FC58B1206C042804D12068EF
:10292000016841F400710160012007B0BDE8F08F3B
:10293000606A216800780861606A401C6062218DCD
:10294000491E89B22185628D521E628522685369B3
:10295000DB435B070BD469B100781061606A401CEF
:102960006062208D401E2085608D401E6085208D18
:102970000028CBD12A463946204601F019FB002811
:10298000CAD154F83D0B016841F400710160202068
:1029900004F81E09E67766770020C6E7FFE7022005
:1029A000C3E70000020010000000FFFF10B586B072
:1029B0000021009101910291039100680F49884222
:1029C0001AD10F4CA06940F00800A061A0696946C7
:1029D00000F008000490C020009012200190032015
:1029E00003900848FFF79EFAE06940F40010E061A8
:1029F000E06900F40010049006B010BD00540040DF
:102A000000100240000C0140024881680278114425
:102A10008160704710010020074810B5016841F03F
:102A200010010160032000F093F80F2000F006F879
:102A300000F04AF8002010BD0020024030B50546E5
:102A40001C4887B0816941F400618161806906A9F1
:102A500000F40060009001A800F0EAF900F018FA14
:102A60001549164AB0FBF1F11548491E0260416054
:102A700040F2E7320021C0E903218160816100F06A
:102A800003FC040012D10E4800F05EFC04000DD1DE
:102A9000192000F02FF8102D07D200222946192006
:102AA00000F036F80748056000E0012407B0204632
:102AB00030BD00000010024040420F00002C0140D9
:102AC0002408002014010020094808B5816941F05C
:102AD00001018161816901F001010091C16941F049
:102AE0008051C161C06900F08050009008BD0000B5
:102AF00000100240002809DB00F01F020121914074
:102B00004009800000F1E020C0F80011704700008B
:102B1000F0B40E4B1B680C46C3F30223C3F1070548
:102B2000042D00D90425191D072901D2002300E036
:102B3000DB1E012606FA05F1491E214099409E4000
:102B4000761E16403143F0BC02F058BD0CED00E09B
:102B5000064900F0070208684FF6FF03184040EAF4
:102B60000220034A10430860704700000CED00E0AB
:102B70000000FA0510B501460020234C012922D09F
:102B8000022939D010291DD161682268D20119D5D6
:102B90001E48C1F38342C903805C0AD561681B4AA1
:102BA000C1F34041921E515C194AB2FBF1F1484316
:102BB00001E0184948436168490203D440000321F9
:102BC000B0FBF1F010BD226AC2F30121012903D14B
:102BD000920701D5C80310BD022905D1626A920788
:102BE00002D549F6404010BD0329FCD12168890374
:102BF000F9D54FF2244010BD00F04AF96168C1F3E5
:102C00008131491C4900DBE70010024008820008BE
:102C100000127A0000093D002DE9F84305460078CE
:102C2000354CC00754D0E0690026C00008D4E069E4
:102C300040F08050E061E069012600F08050009093
:102C40002E480168C90512D40168804641F480719C
:102C50000160FFF75DFA074605E000BFFFF758FA8D
:102C6000C01B642823D8D8F80000C005F6D5206A18
:102C700010F4407021D0A98801F4407181421CD029
:102C8000206A1F49012220F440700A6000220A6075
:102C90002062C00711D0FFF73BFA074641F288389F
:102CA00008E000BFFFF734FAC11B414502D90320F9
:102CB000BDE8F883206A8007F4D5206A696820F4AB
:102CC0004070084320621EB1E06920F08050E0614E
:102CD0002878800705D56068A96820F4404008433B
:102CE00060602878C00605D56068E96820F4800037
:102CF000084360600020DBE70010024000700040E5
:102D0000400442422DE9F0470F46050061D0434E92
:102D1000306800F00700B84209D2306820F00700A0
:102D200038433060306800F00700B84251D128685D
:102D30003B4C810712D5400703D5606840F4E06042
:102D400060602878000703D5606840F460506060D8
:102D50006068A96820F0F000084360602878C00728
:102D600028D06868012810D02168022810D089076F
:102D700000292EDA616821F0030101436160FFF749
:102D8000C7F9804641F288390DE021688903EFE7F1
:102D90008901EDE7FFF7BCF9A0EB0801494502D92D
:102DA0000320BDE8F0876068696800F00C00B0EBB4
:102DB000810FEFD1306800F00700B8420BD93068BE
:102DC00020F0070038433060306800F00700B84258
:102DD00001D00120E5E72878400705D56068E9685B
:102DE00020F4E060084360602878000706D560683A
:102DF000296920F4605040EAC100606000F058F892
:102E00006168084AC1F30311515CC8400649086073
:102E100006480068FFF712FE0020C2E700200240CB
:102E200000100240188200081C010020140100203C
:102E30000F2202600C4A536803F003034360536897
:102E400003F0F0038360536803F4E063C3605268E7
:102E50004FF4E06303EAD20202610448006800F024
:102E60000700086070470000001002400020024088
:102E70000448054900684968044AC1F30221515CCD
:102E8000C84070471C010020001002402882000842
:102E90000448054900684968044AC1F3C221515CED
:102EA000C84070471C010020001002402882000822
:102EB0000E4A51680E4801F00C03042B11D0082B68
:102EC0000FD10C48C1F38343C903C05C0AD55168D4
:102ED000084AC1F34041921E515C054A5043B0FB81
:102EE000F1F0704704494843704700000010024069
:102EF00000127A00F681000800093D002DE9F84F24
:102F0000040070D02078C04DC00749D06868C0F375
:102F10008100012807D06868C0F38100022809D128
:102F20006868C00306D52868800339D56068002822
:102F3000E7D035E06068B0F5803F0BD010B1B0F558
:102F4000A02F11D0286820F480302860286820F451
:102F5000802002E0286840F480302860606890B1EA
:102F6000FFF7D6F806460AE0286840F4802028607B
:102F7000F0E700BFFFF7CCF8801B642873D82868FF
:102F80008003F7D50CE0FFF7C3F8064605E000BF65
:102F9000FFF7BEF8801B6428F0D828688003F7D4B8
:102FA00020789A4E80074FF001094FF0000839D57C
:102FB000686810F00C0F07D06868C0F38100022821
:102FC00009D16868C00306D42868800714D5206931
:102FD000012808D110E02069B0B1C6F80090FFF7D1
:102FE00097F8074605E00AE1FFF792F8C01B0228B0
:102FF000C4D828688007F7D52868616920F0F800F0
:1030000040EAC10028600DE0C6F80080FFF780F8B4
:10301000074604E0FFF77CF8C01B022823D8286885
:103020008007F7D4207800072CD57948A169D9B159
:10303000C0F80090FFF76CF8074604E0FFF768F867
:10304000C01B02280FD8686A8007F7D571484FF473
:10305000FA510068B0FBF1F0009000BF0098411EEB
:103060000091FAD20EE080E0C0F80080FFF750F83F
:10307000074604E0FFF74CF8C01B022875D8686AC1
:103080008007F7D42078400760D5E8690027C000A2
:1030900008D4E86940F08050E861E869012700F051
:1030A000805000905C480168C90513D401688346CC
:1030B00041F480710160FFF72BF8824606E000BF03
:1030C000FFF726F8A0EB0A0064284ED8DBF80000D2
:1030D000C005F5D5E06801280AD008B1052813D04D
:1030E000286A20F001002862286A20F0040002E02B
:1030F000286A40F001002862E06841F2883B98B1FC
:10310000FFF706F882460BE0286A40F004002862C8
:10311000EEE700BFFEF7FCFFA0EB0A0159455AD8C5
:10312000286A8007F6D50CE0FEF7F2FF824605E03C
:10313000FEF7EEFFA0EB0A0159454CD8286A80073C
:10314000F6D41FB1E86920F08050E861E06988B3E7
:103150006968C1F38101022944D00228C6F8608061
:1031600004D0FEF7D5FF044638E034E0FEF7D0FF88
:10317000074604E0FEF7CCFFC01B02282BD82868C6
:103180008001F7D4206AB0F5803F05D16868A16856
:1031900020F4003008436860D4E9080108436968F6
:1031A00021F4741108436860C6F86090FEF7B0FF20
:1031B000044606E025E000BFFEF7AAFF001B022838
:1031C00009D828688001F7D51BE000BFFEF7A0FFF3
:1031D000001B022802D90320BDE8F88F286880016F
:1031E000F4D40EE00128F7D06868226A00F4803138
:1031F000914204D1616A00F47010884201D001202C
:10320000EAE70020E8E70000001002400000424228
:10321000800442421C01002000700040704770474B
:1032200070B590F83C20012A26D0012480F83C405B
:10323000022280F83D2003685A689D6822F07006DB
:103240000A6832435A600D4B02689A4208D0B2F1C4
:10325000804F05D00A4B9A4202D00A4B9A4204D1C1
:10326000496825F080031943916080F83D400021B2
:1032700080F83C10084670BD022070BD002C014053
:10328000000400400008004010B5040003D094F88A
:103290003D0010B107E0012010BD002084F83C0083
:1032A000204600F01FF8022084F83D00211D206810
:1032B00001F0F4FD012084F8460084F83E0084F813
:1032C0003F0084F8400084F8410084F8420084F80C
:1032D000430084F8440084F8450084F83D00002051
:1032E00010BD000008B5154A0168154891420ED17D
:1032F000C16941F00201C161C069002200F0020011
:10330000009011461D20FFF703FC1D2010E00D4A20
:10331000914211D1C16941F00401C161C06900222B
:1033200000F00400009011461E20FFF7F1FB1E2064
:10333000BDE80840FFF7DEBB08BD00000004004008
:10334000001002400008004090F83D10012901D013
:1033500001207047022180F83D100168CA6842F0E0
:103360000102CA6000680B49884208D0B0F1804F62
:1033700005D00949884202D00849884204D18168B1
:1033800001F00701062903D0016841F00101016045
:1033900000207047002C014000040040000800405D
:1033A00001680A6A41F211131A4207D10A6A9B1096
:1033B0001A4203D10A6822F001020A60012180F852
:1033C0003D100020704770B5044690F83C00002581
:1033D000012817D0012684F83C60022084F83D00C3
:1033E0002068826822F0770222F47F4282600868B7
:1033F000502838D00DDC20284FD005DC90B31028A1
:1034000011D14AE0022070BD302846D040280AD1B0
:103410003BE060282FD070280DD0B0F5805F03D03E
:10342000B0F5005F12D0012584F83D60002084F8DB
:103430003C00284670BDCB68D1E90121206801F02D
:1034400069FD2068816841F0770109E0CB68D1E926
:103450000121206801F05EFD2068816841F480410F
:103460008160E1E719E0CA684968206801F064FDFD
:103470005021206806E0CA684968206801F06DFDA7
:103480006021206801F050FDCEE7CA6849682068D5
:1034900001F052FD40212068F4E722680146104601
:1034A000F0E770472DE9F04104460068C6680569F9
:1034B0004FF00007A90713D5B10711D5F91E016117
:1034C00001202077206880698007204602D0FFF71E
:1034D000E8FF04E000F07EF8204600F07CF8277753
:1034E000680716D5700714D521686FF004000861CD
:1034F000022020772068806910F4407F204602D0A7
:10350000FFF7CFFF04E000F065F8204600F063F815
:103510002777280715D5300713D521686FF00800E5
:103520000861042020772068C0698007204602D007
:10353000FFF7B7FF04E000F04DF8204600F04BF82D
:103540002777E80616D5F00614D521686FF010002D
:103550000861082020772068C06910F4407F204669
:1035600002D0FFF79EFF04E000F034F8204600F0A0
:1035700032F82777E80708D0F00706D021686FF007
:1035800001000861204600F027F8280608D530061B
:1035900006D521686FF0800008612046FFF73EFEE7
:1035A000680608D5700606D521686FF040000861EE
:1035B000204600F04FF8A8060AD5B00608D52168C5
:1035C0006FF0200008612046BDE8F041FFF727BEFC
:1035D000BDE8F0817047704770B5164C0168A14294
:1035E00015D11548002501260268521C0260436867
:1035F0005B1C4360B2F5FA7F02D3104A0560167077
:1036000041F28832934202D345600D480670A142D0
:1036100003D1BDE87040FFF7F7B90A48814207D1EE
:103620000948FFF7BDFE094801F03CFF0849087052
:1036300070BD0000002C01400800002002000020A6
:103640000500002000080040C00500202C010020DB
:10365000030000207047704710B5044600684069B9
:1036600094F84110C0F3C010212911D180B1206815
:10367000143050E8001F21F0800140E80012002AB9
:10368000F5D1A06B08B1FEF77FFA204601F030FDBE
:103690002068406994F84210C0F38010222911D1AB
:1036A00080B12068143050E8001F21F0400140E84C
:1036B0000012002AF5D1E06B08B1FEF765FA20464A
:1036C00001F0EFFC002010BD70470000F8B5016864
:1036D00004460868CA684B6910F00F0F4FF00005E8
:1036E00059D003F0010602F49077374365D0C10743
:1036F00005D0D10503D5616C41F00101616441073A
:1037000005D5D90703D0616C41F0020161648107DE
:1037100005D5D90703D0616C41F00401616401074C
:1037200007D502F02001314303D0616C41F008015C
:103730006164616C00293AD0800604D5900602D5F8
:10374000204601F0E3FC20684069616CC0F3801002
:10375000090700D460B3204601F0A3FC206840694B
:10376000400621D52068143050E8001F21F04001A8
:1037700040E80012002AF5D1E06BA8B16D49416321
:10378000E06BFEF725FA002811D0E06B416B01B029
:10379000BDE8F040084783060FD593060DD52046B7
:1037A000BDE8F84001F0B2BC2046FFF78DFFF8BD40
:1037B0002046FFF789FF6564F8BD266B2023012EA4
:1037C0007CD1C6067AD5D60678D5086848680090B8
:1037D00048694FF00206400640D5E16B0868406832
:1037E0000004000CE8D0A28D8242E5D9E08588690A
:1037F00020282DD020680C3050E8001F21F4807163
:1038000040E80012002AF5D12068143050E8001F6B
:1038100021F0010140E80012002AF5D1206814309F
:1038200050E8001F21F0400140E80012002AF5D1C5
:1038300084F84230256320680C3050E8001F21F0E6
:10384000100140E80012002AF5D1E06BFEF79CF968
:103850006663A08DE18D401A81B22AE0A08DE18DD2
:10386000401A81B2E08D0028A6D00029A4D0226899
:103870000C3252E8000F20F4907042E80007002F4D
:10388000F5D12068143050E8002F22F0010240E802
:103890000027002FF5D184F84230256320680C30D2
:1038A00050E8002F22F0100240E80023002BF5D151
:1038B00066632046FFF7CFFEF8BDFFE705062BD570
:1038C000150629D594F841002128F5D1A068B0F556
:1038D000805F01D12069B0B1206A411C216221685A
:1038E00000784860E08C401E0004000CE084E3D1C6
:1038F0002068C16821F08001C1602068C16841F082
:103900004001C160D8E7206A0088C0F30800486021
:10391000206A801C2062E5E74006CDD55006CBD555
:10392000CA68204622F04002CA6084F8413000F0A4
:103930008FF9C1E7A54F000870B5040004D094F8D2
:103940004100002510B106E0012070BD84F8405010
:10395000204600F023F8242084F841002068C16844
:1039600021F40051C160204601F032FC2068016959
:1039700021F4904101612068416921F02A014161EF
:103980002068C16841F40051C1606564202084F85A
:10399000410084F842006563002070BDF0B585B039
:1039A00000240094019402940394054603684C4853
:1039B000DFF828C1022103224A4E0715634521D1B1
:1039C000836943F480438361836903F480430493F0
:1039D000836943F0040383618069039200F004006B
:1039E00004900802CDE9000169463046FEF79AFAD4
:1039F00001200097CDE9014069463046FEF792FA72
:103A000005B0F0BDDFF8E0C0634526D1C36943F4DB
:103A10000033C361C36903F400330493836943F043
:103A2000040383618069039200F004000490042081
:103A3000CDE9000169463046FEF774FA0820CDE969
:103A40000004694630460294FEF76CFA00221146E3
:103A50002620FFF75DF826203CE0244EB342CFD16C
:103A6000C36943F48023C361C36903F480230493CF
:103A7000836943F0080383618069CDE9007100F038
:103A80000800CDE903201A4E69463046FEF74AFA8F
:103A9000F014CDE90004694630460294FEF742FA7C
:103AA000154E1448C6E900048020C6E902402020D3
:103AB0003461C6E905403046F461FEF77FF908B18C
:103AC000FDF7A0FDEE630022114627207562FFF787
:103AD0001FF82720FFF70EF892E70000003801409A
:103AE000001002400008014000440040004800402F
:103AF000000C014030000240E007002090F8423006
:103B0000202B01D00220704721B11AB1002303639A
:103B100001F0BABB0120704710B50068094988421E
:103B20000FD1094C20784142CAB2084901440848E3
:103B3000FDF750FD002802DA06A001F03BFD002051
:103B4000207010BD00480040110000200806002031
:103B50002C0100204649464F2046756C6C0A000037
:103B600070B500680B49884212D10B4D2878C0F11E
:103B70008001CCB20949224601440948FDF72AFDDB
:103B8000002802DA07A001F015FD287820442870EB
:103B900070BD000000480040110000200806002011
:103BA0002C0100204649464F2046756C6C0A0000E7
:103BB0002DE9F843044690F84100984616460D4614
:103BC000202802D00220BDE8F88385B17EB1002014
:103BD0006064212084F84100FEF79AFAA6848146A9
:103BE000E684A0682027B0F5805F02D003E00120C2
:103BF000E9E7206910B12E4600250EE000260CE012
:103C00008021204601F088FBA8B9C6B116F8010B47
:103C100021684860E08C401EE084E08C4B464FF009
:103C20000002CDF800800028EAD14FF04001204684
:103C300001F072FB40B184F841700320C3E735F80E
:103C4000020BC0F30800E3E784F841700020BAE7F4
:103C50007047FEE701684A69D24352050FD46FF4FA
:103C600080624A61002140F8301F20224273817334
:103C7000026942F0040202610173012070470020D2
:103C8000704700002DE9F84F0446C06A1E4693466F
:103C90000D4621680A6842F480620A60082807D04D
:103CA000012805D010F5803F02D0206B112804D1E7
:103CB0002068016841F4807101604FF001195B4692
:103CC000002249462046009600F09EF94FF4007805
:103CD00040B120680068C00501D5C4F840800320C9
:103CE000BDE8F88F2069DFF884A0B0F5804F0FD0D1
:103CF0000620216800EAD51747F0F0000861334636
:103D00005A460AF10601204600F0C6F958BB03E006
:103D1000E8B240F001001CE02168E8B208613346D7
:103D20005A465146204600F0B7F9E0B9206841698B
:103D300081690091016841F4807101605B46002255
:103D400049462046009600F05FF90028C1D147F0AF
:103D5000F1002168086133465A465146204600F07A
:103D60009BF90028BCD00120BAE700000200010046
:103D7000F8B50446C06A1E460D461746082807D007
:103D8000012805D010F5803F02D0206B122804D105
:103D90002068016841F480710160134600224FF0F1
:103DA00001112046009600F02FF940B1206800680C
:103DB000C00502D54FF4007020640320F8BD2069CF
:103DC000B0F5804F0ED00620216800EAD51040F0F3
:103DD000F000086133463A460B49204600F05CF992
:103DE00078B902E005F0FE0000E0E8B22168086161
:103DF000054933463A46891F204600F04DF9002810
:103E0000DCD00120F8BD0000080001002DE9F84FCA
:103E10000446006889460B9D01689846174641F4A0
:103E2000806101602068016841F480710160009543
:103E30004FF0011B0022594620460A9B00F0E4F88F
:103E40004FF4007A40B120680068C00501D5C4F87D
:103E500040A00320BDE8F88F216809F0FE0008614A
:103E60002B46284920460A9A00F016F9F0BB206834
:103E70004169806900902A4620460A9900F0A2F91B
:103E800040B1206C04283AD12068016841F40071E7
:103E9000016034E0FEB2B8F1010F09D02168380AA0
:103EA00008612A4620460A9900F08CF90028E8D1DA
:103EB000206806612A4620460A9900F083F9002806
:103EC000DFD12068016841F4807101600095002213
:103ED000594620460A9B00F097F80028B3D1216884
:103EE00009F0FF0040F00100086100E007E02B4608
:103EF000044920460A9A00F0CFF80028AAD00120F1
:103F0000A8E70000020001002DE9F843044600681C
:103F10000D46DDE9089701689846164641F4807120
:103F200001604B4600224FF001112046009700F03F
:103F30006BF848B120680068C00502D54FF40070E6
:103F400020640320BDE8F883216805F0FE000861C5
:103F50003B464A461549204600F09EF888B920683D
:103F60004169806900903A464946204600F02AF9A6
:103F700048B1206C042804D12068016841F4007124
:103F800001600120DEE7F5B2B8F1010F09D0216828
:103F9000300A08613A464946204600F013F90028E5
:103FA000E7D1206805610020CCE700000200010095
:103FB00070B516460D4604461EE02046FFF74AFE41
:103FC00008B1012070BD681C16D0FEF7A1F8801B57
:103FD000A84200D885B920684069C04340070BD586
:103FE000002044F8300F20216173A073216941F053
:103FF000200121612073E4E720684069C043400745
:10400000DBD4002070BD00002DE9F047984617462C
:104010000D460446C1F30746DDF820902AE000BFB4
:10402000B8F1FF3F26D0FEF773F8A0EB0901414538
:1040300002D8B8F1000F1DD12068012E16D080697A
:1040400025EA00000004000C12D00020B84211D173
:10405000002044F8300F20216173A073216941F0E2
:104060002001216120730120BDE8F0874069E7E766
:104070000120EBE72068012E0AD0806925EA0000C4
:104080000004000C06D00020B842C9D00020EBE7A5
:104090004069F3E70120F7E72DE9F0479846164617
:1040A0000D4604464FF000094FF0200AC1F30747C0
:1040B00023E020684069C043400515D420680168AA
:1040C00041F40071016021686FF480604861C4F8B8
:1040D000309084F83DA084F83E90216C41F00401BA
:1040E000216484F83C9021E0701C06D0FEF710F8A3
:1040F000A0EB0800B04203D816B1012F1FD021E079
:104100002068012F15D0806925EA00000004000C0A
:1041100018D000BF44F8309F84F80DA084F80E90AA
:10412000216941F02001216184F80C900120BDE853
:10413000F087406925EA00000004000CEAD12068FD
:10414000406901E02068806925EA00000004000C55
:10415000AFD1ECE72DE9F041002590460E4604462C
:10416000202728E04069C043C0060CD454F8301B17
:104170006FF01000486144F810596777A577206AFE
:104180002062257714E0FDF7C3FFA0EB0800B042E2
:1041900000D886B920684069C04340060BD544F872
:1041A000305F6773A573206940F02000206125739C
:1041B0000120BDE8F08120684169C9434906D1D496
:1041C0000020F6E770B516460D4604461EE0204670
:1041D000FFF740FD08B1012070BD681C16D0FDF747
:1041E00097FF801BA84200D885B920684069C0436A
:1041F00000060BD5002044F8300F20216173A07316
:10420000216941F0200121612073E4E720684069C1
:10421000C0430006DBD4002070BD00007CB5002543
:104220008DF8045047208DF80500FF248DF80640D6
:10423000032301AA82210B480094FEF75BF90520B5
:10424000FDF722FE05208DF8040014208DF80500EE
:104250008DF80650032301AA822102480094FEF73C
:1042600049F97CBD2405002070B500F059F80646D8
:1042700000F03AF8044600F06FF805463046FCF7C7
:1042800098FB1349FCF786F906462046FCF791FB9C
:104290001049FCF77FF91049FCF7AEF904462846AF
:1042A000FCF787FB0D49FCF775F905460C492046DC
:1042B000FCF770F9FCF78FFB0A4CE0803046FCF706
:1042C0008AFB20812846FCF786FB608170BD0000D8
:1042D000CDCCCC3D0000A03F00007A44000020403F
:1042E0000000C8428C0900203EB50BA0FF240068E6
:1042F0000290012302AA822100940848FEF7FAF8EE
:10430000022301AA822105480094FDF7CBFFBDF8E6
:10431000040040BA3EBD0000020000002405002059
:104320003EB50BA0FF2400680290012302AA82215F
:1043300000940848FEF7DEF8022301AA822105480E
:104340000094FDF7AFFFBDF8040040BA3EBD000089
:1043500004000000240500203EB50BA0FF240068E7
:104360000290012302AA822100940848FEF7C2F8B5
:10437000022301AA822105480094FDF793FFBDF8AE
:10438000040040BA3EBD00000300000024050020E8
:104390000A4B012808D002280ED1C001012906D0FD
:1043A000002909D1012203E04FF40070F6E7002252
:1043B00001461846FDF7A6BE70470000000C0140FC
:1043C0002DE9F04101F030FE070039D025A101F0C0
:1043D0001DFE064625A1384601F018FE054625A11A
:1043E000384601F013FE044624A1384601F00EFEC3
:1043F0000146244836B17269002A028825D042F06D
:104400000102028035B16A69002A028820D042F098
:104410000202028034B16269002A02881BD042F095
:104420000402028031B149690029018816D041F0A7
:1044300008010180384601F0C1FD0120BDE8F0818E
:1044400011A001F0B7F80020F8E722F00102D8E748
:1044500022F00202DDE722F00402E2E721F0080187
:10446000E7E700004C454431000000004C45443271
:1044700000000000424545500000000052454C41FC
:10448000590000008C09002070617273652066611C
:10449000696C2E0A0000000010B5154886B00DF1B9
:1044A000040C0189C489838942898CE81E00C18873
:1044B0000091838842880F490F4801F08BF8FDF77F
:1044C000A3F80D4B02460DA103F1800001F082F824
:1044D00009488030FBF774FE074982B24FF47A73C3
:1044E00080311148FFF764FB06B0012010BD0000C9
:1044F0008C090020B48200087403002041542B4D25
:104500005154545055423D302C2253544D33325661
:10451000392F55504C6F61642F2573222C25732C35
:10452000302C300D0A00000098070020F0B5A1B033
:1045300080216846FBF727FE384D00242C7038A1F7
:104540003948FBF75FFEFDF75FF8014637A001F041
:1045500031F8022338A20421002000F049FBFDF7C6
:1045600053F8024638A1684601F034F86846FBF774
:1045700027FE82B24FF47A76334669463C48FFF70D
:1045800017FB304600F0FCFC022836D02C700223CA
:1045900038A20421002000F02BFB39A16846FBF76C
:1045A00031FE6846FBF70CFE82B23346694630485E
:1045B000FFF7FEFA41F28837384600F0E1FC0228A6
:1045C0001BD02C70022338A20421002000F010FB25
:1045D000FDF71AF8024637A1684600F0FBFF68466F
:1045E000FBF7EEFD82B2334669462148FFF7E0FA59
:1045F000384600F0C5FC012808D0022337A2042168
:10460000002000F0F5FA002021B0F0BD022338A20E
:104610000421002000F0ECFA0120F5E7030000205F
:104620004F4B0D0A000000003402002063707569D2
:10463000643A25730A00000041542B4D51545455DF
:10464000534552434647000041542B4D5154545555
:104650005345524346473D302C312C222573222CA2
:1046600022222C22222C302C302C22220D0A000057
:104670009807002041542B4D515454434F4E4E0047
:1046800041542B4D515454434F4E4E3D302C2262D9
:10469000726F6B65722E656D71782E696F222C3189
:1046A0003838332C310D0A0041542B4D515454539A
:1046B0005542000041542B4D5154545355423D3006
:1046C0002C2253544D333256392F446F776E4C6F32
:1046D00061642F2573222C300D0A00004D51545473
:1046E0005365727665722E2E2E202D2D000000004F
:1046F0004D5154545365727665722E2E2E204F4BB9
:10470000000000003EB50021124800910191104ABE
:104710000291026081600173017501244FF46022EF
:104720000461C2614160FDF777F808B1FCF76AFFE8
:104730001020CDE900040720029069460548FCF7E7
:10474000E9FF08B1FCF75EFF0248FCF777FF3EBDCA
:1047500000240140F4040020094808B5416941F0F3
:10476000010141614069002200F001000090114602
:104770000D20FEF7CDF9BDE808400D20FEF7BAB9CF
:10478000001002402DE9F04385B000254348009514
:10479000019502950395816941F01001816181695C
:1047A00001F010010491816941F02001816181696A
:1047B00001F020010491816941F004018161816966
:1047C00001F004010491816941F00801816180696F
:1047D000334F00F008004FF40054049000222146AB
:1047E0003846FDF78FFCDFF8BC90012210214846C7
:1047F000FDF788FCDFF8B080002206214046FDF777
:1048000081FC01224FF440714046FDF77BFC00948F
:1048100001AA0124022682E8700069463846FDF7A5
:1048200081FB102003278DE8B10069464846FDF75B
:1048300079FB40F202308DE8710069464046FDF791
:1048400071FB04208DE8B10069464046FDF76AFB24
:10485000164D4FF22000CDE900056946029440460E
:10486000FDF760FB2002CDE9000569460294484649
:10487000FDF758FB002211461720FEF749F91720D3
:10488000FEF738F9002211462820FEF741F92820CA
:10489000FEF730F905B0BDE8F083000000100240DB
:1048A0000010014000080140000C014000002110F0
:1048B0000D4810B50B4901600C49416000214FF4CF
:1048C00080428160C0E9031241618161C16101627E
:1048D000FDF724FC002803D0BDE81040FCF792BE91
:1048E00010BD00000054004024050020A0860100F7
:1048F00010B586B0002417480094019402940394E4
:10490000049413490594016041F61F41C0E9011464
:104910006421C0E903148461FEF7B6FC08B1FCF71A
:1049200071FE4FF48050009069460A48FEF74BFD37
:1049300008B1FCF767FE049404A906480594FEF745
:104940006FFC002801D0FCF75DFE06B010BD000032
:1049500000080040C00500200C4810B50A4901605D
:104960004FF4E1314160002181600C22C160C0E957
:1049700004128161C161FEF7DFFF002803D0BDE8AA
:104980001040FCF73FBE10BD003801400807002072
:104990000C4810B50A4901604FF4E1314160002133
:1049A00081600C22C160C0E904128161C161FEF71F
:1049B000C3FF002803D0BDE81040FCF723BE10BDA4
:1049C00000440040500700200C4810B50A4901601F
:1049D0004FF4E1314160002181600C22C160C0E9E7
:1049E00004128161C161FEF7A7FF002803D0BDE872
:1049F0001040FCF707BE10BD00480040980700209B
:104A0000FEE7000038B50A49002000F093F9084C91
:104A100008A0217800F0CEFD002000904FF4E13393
:104A20000246217801F0FCFDBDE8384001F018BCD9
:104A300000000020536C6176654164647265737395
:104A40003A25780A0000000070B5204C0026A078B6
:104A500030B1A670FCF76AFBFFF706FCFCF78AFA98
:104A600060781B4D68B16670A97C002000F08EFD57
:104A70000A20FDF709FA01F0E3FB01F0D1FBFFF793
:104A8000C1FF2878C00701D0012100E000210120EA
:104A9000FFF77EFC2878800701D5012100E0002186
:104AA0000220FFF775FC2878400701D5012000E0BF
:104AB0000020FCF7CBFB2878000701D5012000E09F
:104AC0000020BDE8704000F025B900000000002083
:104AD0008C090020FEE70020AFF3008070B5064689
:104AE0005FF0000404F1B000C0B200F02BFD002024
:104AF00000F028FD102000F025FD0025304600F0D4
:104B000033FD6D1CEDB2802DF8D3641CE4B2082C8B
:104B1000E8D370BD10B50120FDF7B6F9AE2000F066
:104B200011FD202000F00EFD102000F00BFDB02044
:104B300000F008FDC82000F005FD002000F002FD97
:104B4000102000F0FFFC402000F0FCFC812000F071
:104B5000F9FCFF2000F0F6FCA12000F0F3FCA620F9
:104B600000F0F0FCA82000F0EDFC3F2000F0EAFC93
:104B7000A42000F0E7FCD32000F0E4FC002000F0CB
:104B8000E1FCD52000F0DEFCF02000F0DBFCD920B9
:104B900000F0D8FC222000F0D5FCDA2000F0D2FC96
:104BA000122000F0CFFCDB2000F0CCFC202000F035
:104BB000C9FC8D2000F0C6FC142000F0C3FCBDE849
:104BC0001040AF2000F0BEBC10B50446B031C8B2F2
:104BD00000F0B8FC102040EA141000F0B3FC04F020
:104BE0000F00BDE8104040F0010000F0ABBC000039
:104BF0002DE9F047002591468A460446012B22D034
:104C0000DFF8BC80022B24D155E02038C7B27E2CBF
:104C100004D90AF10100002400F0FF0A51462046A1
:104C2000FFF7D2FF07EB4700002608EB4007B85D0F
:104C300000F09AFC761CF6B2062EF8D3A41D6D1C6B
:104C4000E4B2EDB201E0DFF87C8019F8050000283D
:104C5000DBD1BDE8F0872038C7B2782C04D90AF13F
:104C60000100002400F0FF0A51462046FFF7ACFF88
:104C70005FF0000606EB071118F8010000F074FC65
:104C8000761CF6B2082EF5D30AF10100C1B2204617
:104C9000FFF79AFF5FF0000606EB071101EB080033
:104CA000007A00F061FC761CF6B2082EF4D30834CA
:104CB0006D1CE4B2EDB219F805000028CBD1C8E7AD
:104CC000047A0008DC770008704710B5FF21C0F8AF
:104CD0000411C0F80011491CFBF755FA002010BD63
:104CE000D0E94010814201D1012070470020704777
:104CF000D0F80411D0F80001491CCA1701EB126268
:104D000022F0FF02891A814201D101207047002060
:104D100070470000064B012806D0002806D100226B
:104D200002211846FDF7EEB90122F9E770470000AD
:104D3000000C01403EB50C4601254FF47A710094F9
:104D4000CDE9015102462B46A1210448FDF768FC3C
:104D5000207800B9257001203EBD00002405002008
:104D60007047000070B504464068FBF727FE00223C
:104D7000174BFBF726FD6FF013063246FBF702FEDA
:104D8000FBF78CFE0546E060A068FBF717FE0022EB
:104D9000104BFBF716FD3246FBF7F4FD00220E4BDD
:104DA000FBF709FDFBF77AFE0146206115F1FF4F85
:104DB0000BD20A48854208DC0948814205D80948D7
:104DC000814202DC0020607070BD0120607070BD07
:104DD0000000594000006940000049400000C842FE
:104DE000000020C20000AA42704730B593B02821CD
:104DF0006846FBF7C8F914210AA8FBF7C4F9002597
:104E000001200F9510951195010412958DE823004E
:104E100004904FF4E010CDE908100224079468468E
:104E2000FEF76CF808B172B6FEE70AA90F2081E818
:104E300031004FF48060CDE90D0502210AA8FDF78D
:104E400061FF08B172B6FEE74FF4004011900F9475
:104E50000FA8FDF7E1FE002801D072B6FEE713B0FF
:104E600030BD70470148FEF71DBB0000240800203C
:104E7000054800680169C90705D06FF001010161AB
:104E80000248006800477047780500205400002061
:104E90000148FEF707BB0000C0050020F0B502681E
:104EA000194B1A4C1A4D4FF08047984205D0B84222
:104EB00003D0A04201D0A84203D122F070064A6874
:104EC0003243984205D0B84203D0A04201D0A84254
:104ED00003D122F44074CA6822434C6922F0800254
:104EE000224302608A68C2620A688262984201D1E3
:104EF00009690163012141610169C90703D00169A1
:104F000021F001010161F0BD002C014000040040CE
:104F10000008004010B5846842EA032224F47F446C
:104F20000A432243826010BD826822F070020A4365
:104F300042F007018160704710B5036A046A24F0EB
:104F400001040462846924F0F00444EA021423F0AA
:104F50000A020A438461026210BD10B5036A046A42
:104F600024F010040462846923F0A00324F4704444
:104F700044EA023243EA01118261016210BD00007D
:104F800070B50546064C05E028466D1E06D3012087
:104F9000FCF77AFF20780028F6D0207870BD00005A
:104FA0000300002010B5406A0021C185C184FEF7CE
:104FB0008BFB10BD70B5446A2068406994F84110BD
:104FC000C0F3C0100025212904D118B1E584204682
:104FD00000F08EF82068406994F84210C0F3801009
:104FE000222904D118B1E585204600F05AF8606CFA
:104FF00040F0100060642046FEF766FB70BD10B5FF
:105000000146406A096809684FF0000289062ED4FB
:10501000C28501680C3151E8003F23F4807341E8F8
:105020000034002CF5D10168143151E8003F23F021
:10503000010341E80034002CF5D10168143151E836
:10504000003F23F0400341E80034002CF5D120213B
:1050500080F84210016B012909D101680C3151E837
:10506000003F23F0100341E80034002CF5D14263E7
:10507000016B012902D0FEF74FFD10BD818DFEF7B7
:10508000EAFA10BD10B5406A01214163016B0129A4
:1050900002D0FEF765FD10BD818D4908FEF7DBFAF1
:1050A00010BD01680C3151E8002F22F4907241E8E4
:1050B0000023002BF5D10168143151E8002F22F0B4
:1050C000010241E80023002BF5D1016B012909D130
:1050D00001680C3151E8002F22F0100241E8002352
:1050E000002BF5D1202180F8421000210163704788
:1050F00001680C3151E8002F22F0C00241E8002382
:10510000002BF5D1202180F84110704708B590F8A8
:105110004210222901D0022008BD82684FF480533A
:105120009A4201D1016921B1816A9A421BD04AB1E8
:105130000AE00268816A5268C2F308020A80816A42
:10514000891C08E0026972B10268526802F07F02AD
:105150000A70816A491C8162C18D491E0904090CCB
:10516000C18503D01BE002685268F1E70168CA6894
:1051700022F02002CA600168CA6822F48072CA6004
:1051800001684A6922F001024A61202180F8421038
:1051900000214163026B012A03D0FEF7BDFC002011
:1051A00008BD016301680C3151E8002F22F01002A4
:1051B00041E80023002BF5D101680A68D20602D528
:1051C0000A6849680091818DFEF745FAE7E700001B
:1051D00070B5044600680169E26821F4405111434A
:1051E00001612169A0680843616908432168CA68B0
:1051F00041F20C639A430243CA6020684169A26984
:1052000021F44071114341611E492068884202D156
:10521000FDF73EFE01E0FDF72BFE00EBC00101EBC8
:105220000012606864218000B2FBF0F3B3FBF1F37D
:105230006FF018067343B2FBF0F5B2FBF0F605EB26
:105240008305322303EB0515B5FBF1F5B6FBF1F64B
:1052500005F0F00505EB0615B2FBF0F6B2FBF0F039
:10526000B0FBF1F06FF01802504306EB800003EB47
:105270000010B0FBF1F0216800F00F0028448860B6
:1052800070BD00000038014038B581620446828557
:10529000002013466064222284F84220E56B1B4AFA
:1052A000AA62E56B1A4AEA62E56B1A4A2A63E26B64
:1052B00050630A462168E06B091DFCF7ADFD2068CC
:1052C000016840680090206948B120680C3050E8BF
:1052D000001F41F4807140E80012002AF5D12068D7
:1052E000143050E8001F41F0010140E80012002A8C
:1052F000F5D12068143050E8001F41F0400140E82B
:105300000012002AF5D1002038BD0000FF4F000830
:1053100085500008B54F00082DE9F8439846174618
:105320000D460446089E24E0701C22D0FCF7F0FED7
:10533000A0EB0800B0421AD8CEB12068C168490776
:1053400017D5802D15D0402D13D00168C94309070A
:105350000FD401680025406800902046FFF7A1FEA9
:105360000820606484F840500120BDE8F8830320E1
:10537000FBE72068006835EA000004D00020B8424E
:10538000D2D00020F1E70120F9E7000010B50D4C64
:1053900020680168890605D56FF0200101600A4880
:1053A000006880472068016809060AD50168490637
:1053B00007D56FF08001016004480068BDE8104027
:1053C000004710BD500700204C0000205000002076
:1053D00010B50448FEF77AF9BDE81040014800F026
:1053E00003B800009807002038B504460068224939
:1053F00088423FD10168890702D40168490717D55F
:105400006FF00201016021686FF004000860606CB9
:1054100000F004006064606C00F0020060642046EC
:10542000FEF71AF94FF4807214492046FEF766FB26
:1054300020680168C943C9061CD40168406800900F
:105440000F48006840680F4C40422178401AC5B2AE
:105450000D48FDF779FF094821782A4601440B4899
:10546000FCF7B8F8002802DA09A000F0A3F82078C9
:105470002844207038BD0000004800400806002085
:10548000E007002011000020C00500202C010020B2
:105490004649464F2069732046756C6C0A0000002F
:1054A000FEE700002DE9F041070017D000241C4E54
:1054B0004FF47A780BE031190D463846FBF7F4FECD
:1054C0002946434601221748FEF772FB641C384602
:1054D000FFF706FC0028EED0002030551248007877
:1054E00060B10A2211A10E48FAF77FFE30B112A175
:1054F0000B48FAF753FE08B1FEF762FF0849084867
:105500002039FAF74BFE10B10120BDE8F0810BA164
:105510000348FAF743FE0028F7D00220F5E7000021
:1055200054020020080700200600002041542B4DA3
:1055300051545450554200007B0000004552524FD8
:10554000520D0A001CB500218DF804108DF80500DD
:105550004FF47A700090022301AA78210148FCF7E9
:10556000C9FF1CBD240500201CB540218DF8041086
:105570008DF805004FF47A700090022301AA78217B
:105580000148FCF7B7FF1CBD2405002003B583B01C
:105590004FF47A73012204A98DE80E0013460246E7
:1055A000A0210348FDF76AF905B0012000BD000005
:1055B000240500200FB4054B10B503A9044A029836
:1055C00000F05CF910BC5DF814FB00008D6A000867
:1055D000200100200FB4084B10B504A902AA0398BB
:1055E00000F04CF9044602A9002000F0CAFC204655
:1055F00010BC5DF814FB0000835F00080907090E6A
:10560000002804DB00F1E02080F80014704700F06F
:105610000F0000F1E02080F8141D704730B528B16C
:10562000144C031F002021680A4605E0084630BDDF
:105630009A4203D810465268002AF9D1002800D0B7
:1056400041680BD00468A3EB0005A54204D11B6898
:105650001C440346046002E0436000E023603AB16A
:105660001C68D51AA54203D115682C441C605268E9
:105670005A6030BD240100202DE9F04782460F4CCE
:1056800010480D4E0E4F001B4FF0000820F007058C
:105690004FF0010900221146504601F041FA00285E
:1056A00002D1306810B10020BDE8F0873C60C4E949
:1056B0000058C6F80090EDE728010020BC09002042
:1056C00024010020B80B002002E008C8121F08C106
:1056D000002AFAD170477047002001E001C1121F73
:1056E000002AFBD1704700002DE9FF5F82B0002146
:1056F000DDE90430020DDDF840B0034318D044F674
:105700001050A2F2FF3242431514119801281FD005
:10571000A5EB0B00401C5FEA000A4FF000064E4F5D
:10572000DFF83891B046504615D5CAF1000413E0B1
:10573000119801244AA3012801D16FEA0B010298B4
:10574000119AC0E90031C0E9024206B0BDE8F09FFD
:10575000CBF10000DFE704460021404A491842EB44
:105760000450CDE9001012E0E00707D032463B4676
:1057700040464946FBF725F88046894632463B4677
:1057800010461946FBF71DF806460F466410002C1C
:10579000EAD1DDE90401DDE90023BAF1000F06DA00
:1057A000FBF70FF842464B46FBF70BF805E0FBF71B
:1057B0007AF842464B46FBF776F804460E4600223E
:1057C000284BFBF753F903D84FF0FF30014607E0B1
:1057D0000022254B20463146FAF74CFFFBF7F0FA42
:1057E000102409E0002C0ADB0A220023FBF788F9C9
:1057F000039B30321A55641E50EA0102F2D1641C38
:10580000039AC4F111031444119A012A03D001220E
:1058100008430DD10AE0084304D000204FF0110BDB
:10582000119072E7A3EB0B056D1E0DE05B4504DDE7
:105830004FF0000205F1010504E003DA4FF0000229
:10584000A5F10105002AECD002981199C0E90231B6
:10585000C0E9004579E70000000014400000F03F77
:10586000300000000000F0430000E03F30380A281C
:1058700001D2012070470020704700002DE9FF4F42
:1058800095B09A46884606460025EEE1252877D150
:1058900000242746F94A0121039400E0044316F846
:1058A000013F203B01FA03F01042F7D130782A285B
:1058B00011D06FF02F033078A0F13002092A16D8EA
:1058C000039A44F0020402EB820203EB420210440A
:1058D000761C0390EFE758F8042B0392002A03DAB2
:1058E000504244F40054039044F00204761C307893
:1058F0002E2816D116F8010F44F004042A280DD0E2
:105900006FF02F023078A0F13003092B09D807EB94
:10591000870302EB4303C718761CF3E758F8047BB0
:10592000761C30786C280FD006DC4C2817D06828FD
:105930000DD06A2814D104E0742810D07A280FD131
:105940000DE044F400140AE044F4801401E044F44F
:1059500040147278824202D104F58014761C761CC1
:10596000307866280BD013DC582877D009DC002863
:1059700075D04528F6D04628F4D047281AD193E1AF
:1059800018E0632835D0642879D0652812D18BE1DE
:10599000702873D008DC6728F1D069286FD06E2892
:1059A0000DD06F2806D1ACE073282CD0752874D0A8
:1059B000782853D05246179990476D1C54E1C4F390
:1059C0000250022809D003280DD0D8F8001004286E
:1059D0000DD00D6008F1040846E1D8F80010EA1770
:1059E000C1E90052F6E7D8F800100D80F2E70D701B
:1059F000F0E718F8041B8DF8001000208DF8010066
:105A0000EB46012003E058F804BB4FF0FF3061077C
:105A10004FF0000102D40DE009F101018946B942BD
:105A20000FDA8145F8DB1BF809100029F4D108E0F2
:105A300009F1010189468142FADB1BF809100029AE
:105A4000F6D103985346A0EB090721463846179A2A
:105A500000F080FA284400EB090507E044E008E183
:105A60000DE01BF8010B524617999047B9F1010957
:105A7000F7D2534621463846179AF2E039E00A2118
:105A8000C4F302524FF0000B0091022A06D058F8DE
:105A9000040BC117032A09D00AE023E008F107002C
:105AA00020F00702F2E80201904605E000B2C117BB
:105AB000042A01D140B2C117002906DA0A460021A2
:105AC000404261EB02012D2202E0220504D52B2287
:105AD0008DF80420012203E0E20701D02022F7E73D
